{
  "contractName": "BasicCounter",
  "abi": [
    {
      "inputs": [],
      "stateMutability": "nonpayable",
      "type": "constructor"
    },
    {
      "anonymous": false,
      "inputs": [
        {
          "indexed": false,
          "internalType": "uint256",
          "name": "_newValue",
          "type": "uint256"
        }
      ],
      "name": "ValueChanged",
      "type": "event"
    },
    {
      "inputs": [],
      "name": "increase",
      "outputs": [],
      "stateMutability": "nonpayable",
      "type": "function"
    },
    {
      "inputs": [
        {
          "internalType": "uint256",
          "name": "_value",
          "type": "uint256"
        }
      ],
      "name": "increaseBy",
      "outputs": [],
      "stateMutability": "nonpayable",
      "type": "function"
    },
    {
      "inputs": [],
      "name": "decrease",
      "outputs": [],
      "stateMutability": "nonpayable",
      "type": "function"
    },
    {
      "inputs": [
        {
          "internalType": "uint256",
          "name": "_value",
          "type": "uint256"
        }
      ],
      "name": "decreaseBy",
      "outputs": [],
      "stateMutability": "nonpayable",
      "type": "function"
    },
    {
      "inputs": [],
      "name": "reset",
      "outputs": [],
      "stateMutability": "nonpayable",
      "type": "function"
    },
    {
      "inputs": [],
      "name": "get",
      "outputs": [
        {
          "internalType": "uint256",
          "name": "",
          "type": "uint256"
        }
      ],
      "stateMutability": "view",
      "type": "function",
      "constant": true
    }
  ],
  "bytecode": "0x608060405234801561001057600080fd5b5060008054600160a060020a031916331790556102c4806100326000396000f3fe608060405234801561001057600080fd5b506004361061007e577c010000000000000000000000000000000000000000000000000000000060003504636d4ce63c8114610083578063d732d955146100a5578063d826f88f146100af578063e50bfadf146100b7578063e8927fbc146100ca578063f12cb142146100d2575b600080fd5b3360009081526001602052604090205460405190815260200160405180910390f35b6100ad6100e5565b005b6100ad6100f1565b6100ad6100c536600461021a565b610137565b6100ad6101ca565b6100ad6100e036600461021a565b6101d4565b6100ef60016101d4565b565b336000908152600160209081526040808320839055519182527f93fe6d397c74fdf1402a8b72e47b68512f0510d7b98a4bc4cbdf6ac7108b3c59910160405180910390a1565b33600090815260016020526040902054610152908290610262565b6000191161015f57600080fd5b336000908152600160205260408120805483929061017e908490610262565b9091555050336000908152600160209081526040918290205491519182527f93fe6d397c74fdf1402a8b72e47b68512f0510d7b98a4bc4cbdf6ac7108b3c59910160405180910390a150565b6100ef6001610137565b336000908152600160205260409020546101ef90829061027b565b6000106101fb57600080fd5b336000908152600160205260408120805483929061017e90849061027b565b60006020828403121561022c57600080fd5b5035919050565b7f4e487b7100000000000000000000000000000000000000000000000000000000600052601160045260246000fd5b8082018082111561027557610275610233565b92915050565b818103818111156102755761027561023356fea2646970667358221220d3e2d031cea80f1d8514f290273037307f76963e0b1d12f208883b9c4c6af71864736f6c63430008100033",
  "immutableReferences": {},
  "source": "// SPDX-License-Identifier: GPL-3.0\n\npragma solidity >= 0.8.0 < 0.9.0;\n\n/**\n * @title Counter - basic counter\n * @author Edicha Joshua <mredichaj@gmail.com>\n */\ncontract BasicCounter {\n    address private _dev;\n    mapping(address => uint) private _values;\n\n    /// @dev emit whenever value changes\n    /// @param _newValue latest value\n    event ValueChanged(uint _newValue);\n\n    constructor() {\n        _dev = msg.sender;\n    }\n\n    /// @notice increae value by 1\n    function increase() public {\n        increaseBy(1);\n    }\n\n    /// @notice increase value by a given number\n    /// @dev Check for overflow conditions before adding\n    /// @param _value number to add to value\n    function increaseBy(uint _value) public {\n        require(type(uint).max > _values[msg.sender] + _value);\n        _values[msg.sender] += _value;\n\n        emit ValueChanged(_values[msg.sender]); // emit event\n    }\n\n    /// @notice decrease value by 1\n    function decrease() public {\n        decreaseBy(1);\n    }\n\n    /// @notice decrease value by a given number\n    /// @dev check for underflow conditions before subtracting \n    /// @param _value number to subtract from value\n    function decreaseBy(uint _value) public {\n        require(type(uint).min < _values[msg.sender] - _value);\n        _values[msg.sender] -= _value;\n\n        emit ValueChanged(_values[msg.sender]); // emit event\n    }\n\n    /// @notice reset value\n    function reset() public {\n        delete _values[msg.sender]; // set value to zero\n\n        emit ValueChanged(_values[msg.sender]); // emit event\n    }\n\n    /// get value\n    /// @return the current value\n    function get() public view returns (uint) {\n        return _values[msg.sender];\n    }\n\n}",
  "sourcePath": "/Users/josh/Bytangle/Practice/Web3.0 & dApps/contracts/counter/contracts/BasicCounter.sol",
  "compiler": {
    "name": "solc",
    "version": "0.8.16+commit.07a7930e.Emscripten.clang"
  },
  "schemaVersion": "3.4.9",
  "updatedAt": "2022-09-18T12:39:49.273Z",
  "networkType": "ethereum",
  "devdoc": {
    "author": "Edicha Joshua <mredichaj@gmail.com>",
    "events": {
      "ValueChanged(uint256)": {
        "details": "emit whenever value changes",
        "params": {
          "_newValue": "latest value"
        }
      }
    },
    "kind": "dev",
    "methods": {
      "decreaseBy(uint256)": {
        "details": "check for underflow conditions before subtracting ",
        "params": {
          "_value": "number to subtract from value"
        }
      },
      "get()": {
        "returns": {
          "_0": "the current value"
        }
      },
      "increaseBy(uint256)": {
        "details": "Check for overflow conditions before adding",
        "params": {
          "_value": "number to add to value"
        }
      }
    },
    "title": "Counter - basic counter",
    "version": 1
  },
  "userdoc": {
    "kind": "user",
    "methods": {
      "decrease()": {
        "notice": "decrease value by 1"
      },
      "decreaseBy(uint256)": {
        "notice": "decrease value by a given number"
      },
      "get()": {
        "notice": "get value"
      },
      "increase()": {
        "notice": "increae value by 1"
      },
      "increaseBy(uint256)": {
        "notice": "increase value by a given number"
      },
      "reset()": {
        "notice": "reset value"
      }
    },
    "version": 1
  }
}