{
  "contractName": "BasicCounter",
  "abi": [
    {
      "inputs": [],
      "stateMutability": "nonpayable",
      "type": "constructor"
    },
    {
      "anonymous": false,
      "inputs": [
        {
          "indexed": false,
          "internalType": "uint256",
          "name": "_newValue",
          "type": "uint256"
        }
      ],
      "name": "ValueChanged",
      "type": "event"
    },
    {
      "inputs": [],
      "name": "increase",
      "outputs": [],
      "stateMutability": "nonpayable",
      "type": "function"
    },
    {
      "inputs": [
        {
          "internalType": "uint256",
          "name": "_value",
          "type": "uint256"
        }
      ],
      "name": "increaseBy",
      "outputs": [],
      "stateMutability": "nonpayable",
      "type": "function"
    },
    {
      "inputs": [],
      "name": "decrease",
      "outputs": [],
      "stateMutability": "nonpayable",
      "type": "function"
    },
    {
      "inputs": [
        {
          "internalType": "uint256",
          "name": "_value",
          "type": "uint256"
        }
      ],
      "name": "decreaseBy",
      "outputs": [],
      "stateMutability": "nonpayable",
      "type": "function"
    },
    {
      "inputs": [],
      "name": "reset",
      "outputs": [],
      "stateMutability": "nonpayable",
      "type": "function"
    },
    {
      "inputs": [
        {
          "internalType": "uint256",
          "name": "_value",
          "type": "uint256"
        }
      ],
      "name": "set",
      "outputs": [],
      "stateMutability": "nonpayable",
      "type": "function"
    },
    {
      "inputs": [],
      "name": "get",
      "outputs": [
        {
          "internalType": "uint256",
          "name": "",
          "type": "uint256"
        }
      ],
      "stateMutability": "view",
      "type": "function",
      "constant": true
    }
  ],
  "bytecode": "0x608060405234801561001057600080fd5b5060008054600160a060020a03191633179055610339806100326000396000f3fe608060405234801561001057600080fd5b506004361061009a576000357c010000000000000000000000000000000000000000000000000000000090048063d826f88f11610078578063d826f88f146100de578063e50bfadf146100e6578063e8927fbc146100f9578063f12cb1421461010157600080fd5b806360fe47b11461009f5780636d4ce63c146100b4578063d732d955146100d6575b600080fd5b6100b26100ad36600461028f565b610114565b005b3360009081526001602052604090205460405190815260200160405180910390f35b6100b261015a565b6100b2610166565b6100b26100f436600461028f565b6101ac565b6100b261023f565b6100b261010f36600461028f565b610249565b336000908152600160205260409020541561012e57600080fd5b6000198110801561013f5750600081115b61014857600080fd5b33600090815260016020526040902055565b6101646001610249565b565b336000908152600160209081526040808320839055519182527f93fe6d397c74fdf1402a8b72e47b68512f0510d7b98a4bc4cbdf6ac7108b3c59910160405180910390a1565b336000908152600160205260409020546101c79082906102d7565b600019116101d457600080fd5b33600090815260016020526040812080548392906101f39084906102d7565b9091555050336000908152600160209081526040918290205491519182527f93fe6d397c74fdf1402a8b72e47b68512f0510d7b98a4bc4cbdf6ac7108b3c59910160405180910390a150565b61016460016101ac565b336000908152600160205260409020546102649082906102f0565b60001061027057600080fd5b33600090815260016020526040812080548392906101f39084906102f0565b6000602082840312156102a157600080fd5b5035919050565b7f4e487b7100000000000000000000000000000000000000000000000000000000600052601160045260246000fd5b808201808211156102ea576102ea6102a8565b92915050565b818103818111156102ea576102ea6102a856fea26469706673582212209161d51f2c205c02bdb856ca3c8f6870bcac591ddbe524a9bc716932887352a764736f6c63430008100033",
  "immutableReferences": {},
  "source": "// SPDX-License-Identifier: GPL-3.0\n\npragma solidity >= 0.8.0 < 0.9.0;\n\n/**\n * @title Counter - basic counter\n * @author Edicha Joshua <mredichaj@gmail.com>\n */\ncontract BasicCounter {\n    address private _dev;\n    mapping(address => uint) private _values;\n\n    /// @dev emit whenever value changes\n    /// @param _newValue latest value\n    event ValueChanged(uint _newValue);\n\n    constructor() {\n        _dev = msg.sender;\n    }\n\n    /// @notice increae value by 1\n    function increase() public {\n        increaseBy(1);\n    }\n\n    /// @notice increase value by a given number\n    /// @dev Check for overflow conditions before adding\n    /// @param _value number to add to value\n    function increaseBy(uint _value) public {\n        require(type(uint).max > _values[msg.sender] + _value);\n        _values[msg.sender] += _value;\n\n        emit ValueChanged(_values[msg.sender]); // emit event\n    }\n\n    /// @notice decrease value by 1\n    function decrease() public {\n        decreaseBy(1);\n    }\n\n    /// @notice decrease value by a given number\n    /// @dev check for underflow conditions before subtracting \n    /// @param _value number to subtract from value\n    function decreaseBy(uint _value) public {\n        require(type(uint).min < _values[msg.sender] - _value);\n        _values[msg.sender] -= _value;\n\n        emit ValueChanged(_values[msg.sender]); // emit event\n    }\n\n    /// @notice reset value\n    function reset() public {\n        delete _values[msg.sender]; // set value to zero\n\n        emit ValueChanged(_values[msg.sender]); // emit event\n    }\n\n    function set(uint _value) public {\n        require(_values[msg.sender] == 0); // can only set the value to any number if the value is zero\n        require(_value < type(uint).max && _value > type(uint).min); // guard overflow and underflow conditions\n\n        _values[msg.sender] = _value;\n    }\n\n    /// get value\n    /// @return the current value\n    function get() public view returns (uint) {\n        return _values[msg.sender];\n    }\n\n}",
  "sourcePath": "/Users/josh/Bytangle/Practice/Web3.0 & dApps/contracts/counter/contracts/BasicCounter.sol",
  "compiler": {
    "name": "solc",
    "version": "0.8.16+commit.07a7930e.Emscripten.clang"
  },
  "schemaVersion": "3.4.10",
  "updatedAt": "2022-09-18T19:44:47.283Z",
  "networkType": "ethereum",
  "devdoc": {
    "author": "Edicha Joshua <mredichaj@gmail.com>",
    "events": {
      "ValueChanged(uint256)": {
        "details": "emit whenever value changes",
        "params": {
          "_newValue": "latest value"
        }
      }
    },
    "kind": "dev",
    "methods": {
      "decreaseBy(uint256)": {
        "details": "check for underflow conditions before subtracting ",
        "params": {
          "_value": "number to subtract from value"
        }
      },
      "get()": {
        "returns": {
          "_0": "the current value"
        }
      },
      "increaseBy(uint256)": {
        "details": "Check for overflow conditions before adding",
        "params": {
          "_value": "number to add to value"
        }
      }
    },
    "title": "Counter - basic counter",
    "version": 1
  },
  "userdoc": {
    "kind": "user",
    "methods": {
      "decrease()": {
        "notice": "decrease value by 1"
      },
      "decreaseBy(uint256)": {
        "notice": "decrease value by a given number"
      },
      "get()": {
        "notice": "get value"
      },
      "increase()": {
        "notice": "increae value by 1"
      },
      "increaseBy(uint256)": {
        "notice": "increase value by a given number"
      },
      "reset()": {
        "notice": "reset value"
      }
    },
    "version": 1
  }
}